:10000000803102289531DA2DF401F50114280530EC
:10001000F300B830F200F20B0B28F30B0B280000B2
:100020000130F4070030F53D71087502031D1A28F0
:1000300070087402031C1D281E2807281F280800AA
:10004000F800013072021E300319710203182928CA
:100050002A28312872087104031D2F2830284328CC
:1000600031280230F1000030F200C030F300C93016
:10007000F4002230F50074088600750887004131CD
:100080007308810043281B309531242580311B30B3
:10009000F3007308F9007808953124258031780839
:1000A000F3007308F9067208F3007308FC007C087B
:1000B0009531242580317C08F3007308F906710816
:1000C000F3007308FC007C089531242580317C08FE
:1000D000F3007308F9060E309531242580310E3077
:1000E000F3007308F906FA01FB019F28C930F300F9
:1000F0002230F4007A087307F5007B08743DF6009F
:10010000750886007608870001089531242580311E
:10011000C930F3002230F4007A087307F5007B0839
:10012000743DF60075088600760887000108F70020
:100130007708F9060130FA070030FB3D9F28720866
:100140007B02031DA52871087A02031CA828A92890
:100150007628AA28790895312425803108004E0890
:10016000D201D2074D08D101D107C930A0002230F9
:10017000A100200886002108870041310108A20063
:10018000A3012208A300A2012208B7002308B80097
:10019000C930A0002230A100200886002108870075
:1001A00042310108A200A3012208B7042308B804C1
:1001B00001303802193003193702031CE028E12806
:1001C000F3280230B4000030B500C030A000C930C0
:1001D000A1002230A20021088600220887004131B8
:1001E00020088100E92FC930A0002230A10020089A
:1001F00086002108870043310108A2002208AF00D1
:10020000AE01C930A0002230A100200886002108DC
:100210008700433101180D290E299D2ABB01BC011D
:10022000912A3908031D152928293B1C1829192949
:100230002829C930A0002230A1002008860021080A
:10024000870045310108083895316F2580313729FD
:10025000C9302000A0002230A1002008860021081B
:1002600087004531010895316F25803137292000FD
:100270004E08F401F4074D08F301F30795311A25F0
:10028000803120003B080A3EA00000303C3DA10028
:10029000C930A2002230A30020082207A4002108B0
:1002A000233DA50024088600250887000108953114
:1002B0006F25803120003B080A3EA00000303C3D05
:1002C000A100C930A2002230A30020082207A40008
:1002D0002108233DA5002408860025088700C93091
:1002E000A6002230A70026088400270885000831D0
:1002F0000008010603197D297E299829FF304D0544
:10030000B000FF304E05B10000304F05B2000030A4
:100310005005B3002F08A000C930A1002230A20070
:100320002108860022088700433120088100A62981
:100330000230A000C930A1002230A20021088600AE
:1003400022088700433120088100A629B908031D2F
:10035000AA29AB29B3290230F0000030F100803126
:1003600004208031B329C9302000A0002230A10030
:1003700020088600210887004331011DC029C129BA
:10038000252AC930A0002230A100200886002108BB
:10039000870048310108A2002208BA009630A00068
:1003A0002008BD000E2A3908031DD729EA293B1C65
:1003B000DA29DB29EA29C930A0002230A10020086F
:1003C00086002108870047310108083895316F25DC
:1003D0008031F929C9302000A0002230A100200876
:1003E0008600210887004731010895316F2580314B
:1003F000F92920003108F401F4073008F301F3076C
:1004000095311A258031003095316F2580312000DB
:10041000A0002008BA000130BD020E2AC930A00099
:100420002230A100200886002108870048310108F9
:100430003A06031D1C2A1D2A682ABD08031D212A0D
:10044000222AD329682A682A682AC930A0002230C3
:10045000A10020088600210887004331811D312A30
:10046000322A532A9630A0002008BD003A2A0130D3
:10047000BD023A2AF030F6000030F5000030F400FA
:100480000030F30096315D2680312000A000201C52
:100490004A2A4B2A682ABD08031D4F2A502A372AA8
:1004A000682A682A682AC930A0002230A1002008E2
:1004B00086002108870044310108A200A301220818
:1004C000F0002308F100803104208031682A682A76
:1004D00020003908031D6D2A7B2A3B1C702A712AD3
:1004E000842A0130CD070030CE3D0030CF3D0030B2
:1004F000D03D842A842A0130CD070030CE3D003023
:10050000CF3D0030D03D842ABD08031D882A892AAA
:100510008D2A8030A0002008AE000130BB070030DB
:10052000BC3D38083C02031D972A37083B02031CD8
:100530009A2A9B2A1129B22CB22CBB01BC01A52BF3
:100540005408031DA42AD12AFF304D05A000FF3016
:100550004E05A10000304F05A20000305005A30059
:1005600023082204210420040319B72AB82ABD2A2B
:100570005508031DBC2AD12ABD2A4D3095316F255F
:100580008031003095316F2580312000530895313E
:100590006F258031003095316F2580312000D501E5
:1005A000D12A3908031DD52AE82A3B1CD82AD92A82
:1005B000E82AC930A0002230A100200886002108C6
:1005C000870045310108083895316F258031F72AB9
:1005D000C9302000A0002230A10020088600210898
:1005E00087004531010895316F258031F72A2000B9
:1005F0004E08F401F4074D08F301F30795311A256D
:10060000803120003B080A3EA00000303C3DA100A4
:10061000C930A2002230A30020082207A40021082C
:10062000233DA50024088600250887000108953190
:100630006F25803120003B080A3EA00000303C3D81
:10064000A100C930A2002230A30020082207A40084
:100650002108233DA5002408860025088700C9300D
:10066000A6002230A700260884002708850008314C
:100670000008010603193D2B3E2B4B2BFF304D0587
:10068000B000FF304E05B10000304F05B200003021
:100690005005B300642BC930A0002230A10020080F
:1006A0008600210887004331010880391038A200F4
:1006B000C930A3002230A400230886002408870044
:1006C000433122088100642B3908031D682B992BC4
:1006D0003B1C6B2B6C2BA12B0130CD070030CE3D8A
:1006E0000030CF3D0030D03DFF304D05A000FF3041
:1006F0004E05A10000304F05A20000305005A300B8
:1007000000302306031D8E2B00302206031D8E2B86
:10071000FF302106031D8E2BFF302006031D912B79
:10072000922BA12B0130A0002008D307A12BA12BD5
:10073000A12B0130CD070030CE3D0030CF3D003041
:10074000D03D0130BB070030BC3D38083C02031DE2
:10075000AB2B37083B02031CAE2BAF2BA02AB02BD0
:10076000C930A0002230A10020088600210887009F
:100770004331811FBC2BBD2BB22CC930A0002230CD
:10078000A100200886002108870046310108953124
:100790006F25803120005208F401F4075108F3015D
:1007A000F30795311A258031003095316F2580315E
:1007B0002000B908031DDD2BDE2BE62B0130F000F5
:1007C0000030F100803104208031E62B963020008B
:1007D000A0002008BD00C930A0002230A1002008E0
:1007E0008600210887004331811EF72BF82B662CE9
:1007F00033083204310430040319FF2B002C662C1B
:10080000C930A0002230A1002008860021088700FE
:1008100048310108A2002208BA00452C301C112CD6
:10082000122C212CC930A0002230A1002008860003
:100830002108870047310108083895316F2580313C
:10084000302CC9302000A0002230A10020088600F2
:10085000210887004731010895316F258031302C00
:1008600020003108F401F4073008F301F307953153
:100870001A258031003095316F2580312000A0008D
:100880002008BA000130BD02452CC930A00022303A
:10089000A1002008860021088700483101083A0697
:1008A000031D532C542C5B2CBD08031D582C592CB4
:1008B0000E2C5B2C5B2CBD08031D5F2C602CB22C16
:1008C0008030A0002008AE00B22CB22CC930A000AD
:1008D0002230A10020088600210887004331011F33
:1008E000722C732C9B2C782C782C0130BD02782C28
:1008F000F030F6000030F5000030F4000030F30076
:1009000096315D2680312000A000201C882C892C87
:10091000902CBD08031D8D2C8E2C752C902C902CAA
:10092000BD08031D942C952CB22C8130A00020080A
:10093000AE00B22CB22CC930A0002230A100200899
:1009400086002108870044310108A200A301220883
:10095000F0002308F100803104208031B22CB22C49
:10096000B22CB22C02302000B4000030B5002E08AA
:10097000A000C930A1002230A20021088600220870
:100980008700413120088100E92FB901C72CC93007
:10099000A0002230A10020088600210887004131F4
:1009A0000108A200A3012208A300A2012208B700A7
:1009B0002308B800C930A0002230A100200886001A
:1009C0002108870042310108A200A3012208B704D0
:1009D0002308B804C930A0002230A10020088600F6
:1009E0002108870043310108A2002208BA00013023
:1009F0003802193003193702031CFF2C002D052D76
:100A00001830B7000130B800052DBB01BC01B32D73
:100A10005408031D0C2D392DFF304D05A000FF306B
:100A20004E05A10000304F05A20000305005A30084
:100A3000230822042104200403191F2D202D252D15
:100A40005508031D242D392D252D4D3095316F2549
:100A50008031003095316F25803120005308953169
:100A60006F258031003095316F2580312000D50110
:100A7000392D3908031D3D2D472D3B1C402D412D9F
:100A8000472D3A08083895316F2580314C2D2000CC
:100A90003A0895316F25803120004E08F401F407A3
:100AA0004D08F301F30795311A2580310030953157
:100AB0006F2580312000A0003B08023EA1000030DD
:100AC0003C3DA200C930A3002230A4002108230726
:100AD000A5002208243DA6002508860026088700D8
:100AE000200881003908031D762DA72D3B1C792D88
:100AF0007A2DAF2D0130CD070030CE3D0030CF3DF7
:100B00000030D03DFF304D05A000FF304E05A10064
:100B100000304F05A20000305005A300003023062E
:100B2000031D9C2D00302206031D9C2DFF30210645
:100B3000031D9C2DFF302006031D9F2DA02DAF2DE2
:100B40000130A0002008D307AF2DAF2DAF2D01300D
:100B5000CD070030CE3D0030CF3D0030D03D0130DC
:100B6000BB070030BC3D38083C02031DB92D3708D7
:100B70003B02031CBC2DBD2D082DBE2D3708033EA6
:100B8000B4000030383DB500C930A0002230A100CB
:100B90002008860021088700413181013708023E84
:100BA000A0000030383DA100C930A2002230A300CF
:100BB00020082207A4002108233DA5002408860060
:100BC000250887008101E92FE52DC930A0002230DA
:100BD000A1002008860021088700413101089531D5
:100BE0006F258031C9302000A0002230A1002008EC
:100BF0008600210887004231010895316F25803138
:100C0000C9302000A0002230A10020088600210861
:100C100087004331010895316F258031C9302000AC
:100C2000A0002230A100200886002108870044315E
:100C3000010895316F25803103302000B400003069
:100C4000B500C930A0002230A1002008860021088C
:100C5000870041318101C930A0002230A100200865
:100C600086002108870042318101E92F382E382E75
:100C7000BD0104303D02031C3E2E3F2E412E962E18
:100C8000962E3D08023EA000003003180130A1005E
:100C9000C930A2002230A30020082207A4002108A6
:100CA000233DA5002408860025088700010895310A
:100CB0006F2580312000A6002608BA003D08013EBD
:100CC000A000003003180130A100C930A20022307A
:100CD000A30022088600230887004131010820066E
:100CE0002104031D742E752E832E3A08A000C930EE
:100CF000A1002230A200210886002208870042318C
:100D000020088100832E0530F0000030F100803192
:100D10000420803101302000A0002008BD070430ED
:100D20003D02031C942E952E412E962E0430B400C5
:100D30000030B500C930A0002230A1002008860094
:100D40002108870041318101C930A0002230A10073
:100D5000200886002108870043318101E92FC9302E
:100D6000A0002230A100200886002108870042311F
:100D70000108A2002208BA00C930A0002230A10058
:100D8000200886002108870043310108A2002208BC
:100D9000AF00B601BD01B601382F0530F0000030BC
:100DA000F10080310420803120002F083602031C1E
:100DB000DA2EDB2E182F3A083D020318E02EE12E22
:100DC000182F3608043EA000003003180130A1009F
:100DD000C930A2002230A30020082207A400210865
:100DE000233DA500240886002508870001089531C9
:100DF0006F2580312000A6003D08023EA70000308C
:100E000003180130A800C930A9002230AA00270821
:100E10002907AB0028082A3DAC002B0886002C08C7
:100E20008700260881000130A0002008BD07322F6E
:100E30003608043EA000003003180130A100C9307C
:100E4000A2002230A30020082207A4002108233D8D
:100E5000A5002408860025088700010895316F2524
:100E60008031322F01302000A0002008B607382F33
:100E7000C930A0002230A100200886002108870088
:100E8000413101083602031C462F472FCD2E642F17
:100E9000642F3D08023EA000003003180130A1007D
:100EA000C930A2002230A30020082207A400210894
:100EB000233DA50024088600250887008101013014
:100EC000A0002008BD07642F3A083D02031C692FCB
:100ED0006A2F492F6B2F3D08033EB40000300318E2
:100EE0000130B500C930A0002230A10020088600E2
:100EF00021088700413181013D08023EA0000030F9
:100F000003180130A100C930A2002230A30020083C
:100F10002207A4002108233DA500240886002508F7
:100F200087008101E92F0230B4000030B500C930DC
:100F3000A000C930A1002230A200210886002208AA
:100F40008700413120088100E92FE92FC930860050
:100F5000223087000108013A8E310319062E033A28
:100F60000319342E8031013A0319FA2F053A031977
:100F7000F62F013A0319F42F173A0319F82F013A03
:100F800089310319E029033A0319F5298031013A1F
:100F90000319FC2F073A0319C72C013A0319FE2F36
:100FA000033A0319C52C013A0319E52D0F3A031929
:100FB000382E013A0319E52D033A0319382E013A68
:100FC0000319382E073A0319382E013A0319AF2EA8
:100FD000932F3508F201F2073408F101F1072D08CB
:100FE00080312020803108008F31EE2F8F314F2F3C
:100FF0008A31C92A8E319E2E8A31832A8A31812AEA
:101000001B30953124258831453095312425883190
:101010000800F3000B28230095180F2810280B2830
:1010200011287308F100F201710891007208920012
:10103000700893003F30F1007108950520000310FF
:101040008B1F23282428252803148B132300151510
:1010500055309600AA309600951415112000031CF7
:101060003228332836288B173628362808007B0884
:101070002000A201A2077A08A101A1073F287D084C
:10108000F101F1077C08F001F0072208F301F307F2
:101090002108F201F20796319C2688317108200060
:1010A000A201A2077008A101A1070130F8070030D2
:1010B000F93D22082104031D5E285F283F2860288F
:1010C000780886007908870081010130F802003035
:1010D000F93B6A287D08F101F1077C08F001F0076F
:1010E0007B08F301F3077A08F201F2079631202614
:1010F000883170082000A0002008A3007D08F101BD
:10110000F1077C08F001F0077B08F301F3077A0888
:10111000F201F20796319C2688317108FB01FB072A
:101120007008FA01FA070A3020002302031C9928EC
:101130009A289E280730A0002008A3073030A0007E
:101140002008A3072308A0007808860079088700F4
:10115000200881000130F8020030F93B7B087A0456
:10116000031DB328B4286A28B52808002000A6006B
:101170000130F1009030F2009531842588319230B1
:10118000F1009030F2009531842588315230F10021
:101190009030F200953184258831C930F800223032
:1011A000F90020005708A400A5012408FA0025082A
:1011B000FB001030FC000030FD0088313720883102
:1011C000C930F1002230F200953184258831DF30BA
:1011D000F1009030F20095318425883120002608F6
:1011E00097312D2788312000A4002408A700270864
:1011F000FF3A0319FC28FD2802292708A400240827
:10120000D70002298831002088317230F1009030F7
:10121000F200953184258831C930F8002230F90078
:1012200020005808A400A5012408FA002508FB00A6
:101230001030FC000030FD00883137208831C93083
:10124000F1002230F200953184258831DF30F10041
:101250009030F2009531842588312000260897319E
:101260002D2788312000A4002408A7002708FF3A72
:1012700003193B293C2941292708A4002408D80048
:10128000412988310020883120005808A400240812
:10129000F400013095311025883120005708A40052
:1012A0002408F400023095311025883114302000D4
:1012B000A4002408F4000030953110258831B030A6
:1012C000F1009030F200953184258831C930F80062
:1012D0002230F90020005708A400A5012408FA00D4
:1012E0002508FB001030FC000030FD00883137205D
:1012F0008831C930F1002230F200953184258831DF
:101300002E309531242588311030200058020318E2
:101310008A298B29902930309531242588319029CC
:10132000C930F8002230F90020005808A400A501B7
:101330002408FA002508FB001030FC000030FD00F6
:10134000883137208831C930F1002230F2009531E0
:1013500084258831CD30F1009030F200953184251C
:1013600088311F30F1009030F200953184258831AA
:1013700008009431FA2489311430F0000030F10073
:10138000803104208931C529C529C9302000A00039
:101390002230A1002008860021088700443101087E
:1013A000A200A30123083C02031DD82922083B0206
:1013B000031CDB29DD298B312F2B8731E92FDD2918
:1013C00095313B25893122000C1102302000B400F8
:1013D0000030B500C930A0002230A10020088600EE
:1013E0002108870041318101DD29C930A000223068
:1013F000A1002008860021088700433101089531AB
:101400006F258931C9302000A0002230A1002008BA
:101410008600210887004431010895316F25893104
:10142000C9302000A0002230A10020088600210839
:1014300087004531010895316F258931C930200079
:10144000A0002230A1002008860021088700463134
:10145000010895316F258931C9302000A000223064
:10146000A100200886002108870042318108031D61
:101470003A2A3B2A4F2AC930A0002230A100200876
:1014800086002108870041310108A200A30122083B
:10149000F0002308F100803104208931712A963050
:1014A0002000A0002008BD00582A0130BD02582AA3
:1014B000F030F6000030F5000030F4000030F300AA
:1014C00096315D2689312000A000201C682A692AF7
:1014D000712ABD08031D6D2A6E2A552A712A712AA8
:1014E000712A02302000B4000030B500C930A000DD
:1014F0002230A100200886002108870041318101A7
:10150000DD29B901832A0030B3000030B200003079
:10151000B1000030B0009630A0002008BD00C930F6
:10152000A0002230A1002008860021088700443155
:101530000430010203189D2A9E2AAB2A0430A00021
:10154000C930A1002230A2002108860022088700AD
:10155000443120088100C930A0002230A1002008B9
:10156000860021088700443121300102031CB92A7A
:10157000BB2A8031AF282030A000C930A100223022
:10158000A20021088600220887004431200881003B
:10159000B92A22000C159531FB258A31C93020006B
:1015A000A0002230A10020088600210887004231D7
:1015B0000108A200A3012208F0002308F1008031F5
:1015C00004208A3102302000B4000030B500C03061
:1015D000A000C930A1002230A20021088600220804
:1015E0008700413120088100BB01BC01C930A00047
:1015F0002230A100200886002108870044313130C4
:101600000102031C042B052B132B3030A000C93022
:10161000A1002230A2002108860022088700443160
:1016200020088100132BC930A0002230A10020081F
:1016300086002108870045318108031D202B222BBD
:101640008931C529C930A0002230A10020088600B8
:101650002108870045318101810A202B202B22009F
:101660000C15C9302000A0002230A10020088600FF
:101670002108870043310108A200A3012208F000DD
:101680002308F100803104208A3101302000BB079B
:101690000030BC3DC930A0002230A10020088600E7
:1016A000210887004831010895316F258A31C930FA
:1016B0002000A0002230A100200886002108870019
:1016C00045310108A200A3012208F0002308F1001F
:1016D000803104208A31C9302000A0002230A100CE
:1016E00020088600210887004931010895316F25BF
:1016F0008A31C9302000A0002230A10020088600D5
:101700002108870045310108A200A3012208F0004A
:101710002308F100803104208A3122000C11C930E5
:101720002000A0002230A1002008860021088700A8
:101730004A31010895316F258A312000A200220824
:10174000BA00C930A0002230A1002008860021087C
:10175000870045310108A200A3012208F0002308F8
:10176000F100803104208A31C9302000A0002230ED
:10177000A10020088600210887004B31010895311F
:101780006F258A312000A2002208AF00C930A000D6
:101790002230A10020088600210887004731010877
:1017A000033A031DD42BD52BEE2BC930A0002230D9
:1017B000A1002008860021088700463101083A066A
:1017C000031DE32BE42BEE2BC930A0002230A10037
:1017D000200886002108870041318101C930A0001E
:1017E0002230A10020088600210887004731010827
:1017F000033A0319FC2BFD2B172CC930A000223013
:10180000A1002008860021088700463101082F0624
:10181000031D0B2C0C2C172CC930A0002230A1006A
:10182000200886002108870041318101172CC9302A
:10183000A0002230A100200886002108870047313F
:101840008108031D242C252C302CC930A000223007
:10185000A100200886002108870041318101302C39
:10186000C930A0002230A10020088600210887008E
:1018700041318108031D3D2C3F2C8931B9292200BB
:101880000C15C9302000A0002230A10020088600DD
:101890002108870044310108A200A3012208BB00EF
:1018A0002308BC00202B2000C301C401C501C601D0
:1018B000C701C801C901CA01953108258C31210031
:1018C0000C1122000C112000CB010430BE003E0898
:1018D000D8000230BE003E08D70000309531012507
:1018E0008C31143A031D752C762C882C01309531DF
:1018F00001258C312000BE003E08D8000230953111
:1019000001258C312000BE003E08D700882C882C91
:101910002000CB08031D8D2C8E2C972C0130953187
:101920005C258C312000BE003E08CC00A02C00308D
:1019300095315C258C312000BE003E08CC00A02CE7
:10194000CB08031DA42CA52CB22C4C081B3A031D5C
:10195000AA2CAB2CB22CCB01CB0A4C08BE003E0803
:10196000C500882CCB08031DB62CB72C052D4C08C0
:101970000D3A0319BC2CBD2CC42C4C080A3A031D8B
:10198000C22CC32C052DC42C0130C9070030CA3D20
:10199000C408031DCC2CCD2CDC2C4C080A3A031DAA
:1019A000D22CD32CDC2C43080D3A031DD82CD92C77
:1019B000DC2CC401C40ADC2C4C08BE003E08C30069
:1019C0004408031DE42CF42C043049064A04031D8A
:1019D000EA2CEB2C882C01308831B6208C31200089
:1019E000C901CA01882C882C023049064A04031D0B
:1019F000FA2CFB2C882C00308831B6208C3120004A
:101A0000C901CA01882C882C882C4B08013A031D77
:101A10000A2D0B2D182D4C08BE003E08C6004C08A0
:101A2000BE003E08C5060230BE003E08CB00882C32
:101A30004B08023A031D1D2D1E2D312D4C08BE00F2
:101A40003E08C5064C08BE00BF013E08BF00BE01EF
:101A50003E08C7003F08C8000330BE003E08CB0068
:101A6000882C4B08033A031D362D372D472D4C0883
:101A7000BE003E08C5064C08BE00BF013E08C704B4
:101A80003F08C8040430BE003E08CB00882C4B0839
:101A9000043A031D4C2D4D2D612D4C08BE003E080F
:101AA000C5064C080E3A031D562D572D5E2D0530E8
:101AB000BE003E08CB00C901CA01882CCB01882C8E
:101AC000882C4B08053A031D662D672DAE2D4A085C
:101AD000803ABE004808803A3E02031D712D470837
:101AE00049020318742D752DAE2D20004A08803A46
:101AF000FF0081307F02031D7F2D1830490203183B
:101B0000822D832DAE2D20004C08BE003E08C50658
:101B10004C08BE00C930BF002230C00049083F0752
:101B2000C1004A08403DC2004108860042088700C3
:101B30003E0881000130C9070030CA3D48084A0606
:101B4000031DA42D47084906031DA72DA82D882C89
:101B50000630BE003E08CB00882C882C20004B08A5
:101B6000063A031DB42DB52DEC2D4C084506031D7A
:101B7000BA2DBB2DCE2D4808803AFF0080307F0261
:101B8000031DC42D01304702031CC72DC82DCE2DC7
:101B9000200046088D31F8258C31EC2DC9308600A7
:101BA00022308700B030C03FC1302000BE00C930B5
:101BB000BF002230C0003F08860040088700413146
:101BC0003E0881000230F1000030F200460880310A
:101BD00020208C31EC2DEC2D2000CB01C701C80159
:101BE000C601C301C901CA01882C882C8031022892
:101BF0002000AD000030B3000030B2000030B10072
:101C00000030B000B901B90A8731A62FC93086006B
:101C1000223087000130C03FC930A0002230A1002F
:101C20002008860021088700413181010830A0008A
:101C3000C930A1002230A2002108860022088700B6
:101C4000423120088100CC30F0002230F100D63043
:101C5000A0002008F2009531BA258D310B3020000C
:101C6000B4000030B5004D2FC930A0002230A100D3
:101C7000200886002108870041310108983A031D99
:101C8000422E432E512EC930A0002230A100200840
:101C9000860021088700423101089631E1268D3106
:101CA0008E2EC9302000A0002230A100200886001E
:101CB00021088700413101089E3A031D602E612EE4
:101CC0006F2EC930A0002230A10020088600210814
:101CD000870042310108A2002208D9008E2EC930A7
:101CE000A0002230A1002008860021088700413191
:101CF00001089F3A031D7D2E7E2E8E2EC930A00036
:101D00002230A10020088600210887004231010806
:101D1000A2002208D6008E2E8E2E8E2E023020009B
:101D2000B4000030B500C930A0002230A100200866
:101D3000860021088700413181014D2FFF30A0002E
:101D40002008BA00E42EBA01192FBA01BA0A192FD5
:101D50000230A0002008BA00192F5708A000200860
:101D6000BA00192F5808A0002008BA00192F3230E5
:101D7000A0002008BA00192F1930A0002008BA00CE
:101D8000192F9431FD248D312000A0002008BA00C5
:101D9000192F5908A0002008BA00192F5608A000D2
:101DA0002008BA00192F0230A0002008BA00192F0D
:101DB000BA01BA0A192F8C30A0002008BA00192FD6
:101DC000BA01192F192F192FC930A0002230A100F4
:101DD000200886002108870041310108803A031954
:101DE000A32E013A0319A52E113A0319A82E013A80
:101DF0000319AD2E033A0319B22E063A0319B72E72
:101E0000013A0319BC2E033A0319D32E013A0319E0
:101E1000D82E0F3A0319C12E023A0319DB2E073AC6
:101E20000319E02E033A0319C92E013A0319CE2EE5
:101E3000192F3A08FF3A031D1E2F1F2F312F023092
:101E4000B4000030B500C930A000C930A100223074
:101E5000A200210886002208870041312008810065
:101E60004D2F0330B4000030B500C930A00022303F
:101E7000A1002008860021088700413181013A082D
:101E8000A000C930A1002230A2002108860022084B
:101E900087004231200881004D2F8731E92FC9305A
:101EA000A0002230A10020088600210887004131CF
:101EB0000108A200A301A401A5011830A235A30DB9
:101EC000A40DA50D890B5E2F2508D0002408CF0096
:101ED0002308CE002208CD00C930A0002230A10086
:101EE000200886002108870042310108A200A301D2
:101EF000A401A5011030A235A30DA40DA50D890BD9
:101F00007B2F2208CD042308CE042408CF04250803
:101F1000D004C930A0002230A1002008860021088A
:101F2000870043310108A200A301A401A5010830E4
:101F3000A235A30DA40DA50D890B982F2208CD0461
:101F40002308CE042408CF042508D004C930A000FB
:101F50002230A100200886002108870044310108B2
:101F6000A200A301A401A5012208CD042308CE04E8
:101F70002408CF042508D004C930A0002230A100D5
:101F80002008860021088700413180300102031CAF
:101F9000CA2FCB2FCE2FD401D40AD02FD401D02FCB
:101FA000C930A0002230A100200886002108870047
:101FB00042310108A2002208D300D501D50A02301F
:101FC000B4000030B500C930A0002230A1002008C4
:101FD000860021088700413181014D2F0230B40075
:101FE0000030B500C030A000C930A1002230A200EE
:101FF00021088600220887004131200881004D2FEA
:1020000000341B345B3430346D341B345B34323475
:102010004A341B345B3430343B343034663400345F
:102020000034003400340034003400340034003410
:1020300000340034003400340034003400345234AE
:1020400065346134643479342E3420344A34753440
:1020500073347434203463346C346F3473346534C3
:102060002034743468346534203474346534723404
:102070006D3469346E3461346C342E3420344E3413
:102080006F342034723465347334653474342034DE
:102090006E34653465346434653464342E340D3400
:1020A0000A34003445346E34743465347234203468
:1020B00053345734203456346534723473346934AD
:1020C0006F346E3420344D3461346A346F3472347A
:1020D000203469346E3420346834653478342034E4
:1020E0005B34003445346E347434653472342034D7
:1020F000533457342034563465347234733469346D
:102100006F346E3420344D3469346E346F3472342D
:10211000203469346E3420346834653478342034A3
:102120005B34003441347634723455347334623461
:102130003534303430342D3431342E343734203487
:102140007434653472346D3469346E3461346C3493
:1021500020346D346F34643465340D340A34003403
:102160000D340A344F344B342C3420346D347934EC
:102170002034533457342034763465347234733415
:1021800069346F346E3420346934733420346E34DF
:102190006F3477343A3420340034203428346834AF
:1021A0006534783429340D340A34003441345634DB
:1021B00052344934533450345F34323400345D3453
:0621C0003A342034003423
:1029F40008000134033420005A08002D0800F400B4
:102A0400740895319E259531072D08002430230044
:102A14009E0090309D0007309B000800F60074086B
:102A2400F5007508F0007608883109209531080012
:102A3400740895316F259531730895316F2595315B
:102A4400232D0800F000700823009A00292D9E1CF5
:102A54002C2D2D2D292D2E2D0800640080010131EF
:102A64000130FE020030FF3B7F087E04031D302D41
:102A74000034FF3023008C00FF308E00FF30210033
:102A84008E00FF308C002400940195010800220080
:102A94008E150130F0000030F100803104209531B2
:102AA40022008E111430F0000030F1008031042037
:102AB4009531080023009D1C602D612D652D1D128C
:102AC4001D16652D652D2000911E692D6A2D652D1D
:102AD4006B2D230019086E2D0800F10020009111C0
:102AE400710824009100762D2000911D7A2D7B2DF4
:102AF400762D7C2D24001108F0007008F200720875
:102B0400832D0800922D7108840072088500000846
:102B14009531242595310130F1070030F23D922D95
:102B2400710884007208850000080038031D9B2D7D
:102B34009C2D852D9D2D0800F3006400230095181D
:102B4400A42DA52D9F2DA62D7308F000F10170086A
:102B54009100710892003F30F20072089505151437
:102B64000310151803140030093D1308B92D08008B
:102B74007108F501F5077008F401F407CA2D013056
:102B8400F4070030F53D0130F3007308F207CA2D55
:102B94007408860075088700720890310A00953120
:102BA400C03F8908031DD72DD82DC12DD92D08006C
:102BB400C9308400223085002730FE000130FF0038
:102BC40095312F2595314D308400003085000A3031
:102BD400FE000030FF0095312F2595319431FB2400
:102BE4009531D9009431FC249531DA0020008C31E0
:102BF400532C23008C018E0121008E1122008E158E
:102C04001430F0000030F1008031042095312100AF
:102C14000E100E11C030240094002A309500643048
:102C240092002000DA01DA0A5A089631E126953139
:102C340022008E11953149259531080071087004E0
:102C44000319252E262E552EF501F50A332E0130B3
:102C5400F035F10D890B2A2E0130F4007408F507C4
:102C6400332EF11F362E372E292E392E392E710888
:102C74007302031D3F2E70087202031C422E432E62
:102C8400482E7008F2027108F33B482E0130F136E9
:102C9400F00C890B492E0130F502031D522E532EE0
:102CA400392E552E552E7308F101F1077208F001E3
:102CB400F0075C2E08007308F7007408F800750824
:102CC400F9007608FA001830FA36F90CF80CF70C0B
:102CD400890B662E770895316F2596317308F700B6
:102CE4007408F8007508F9007608FA001030FA360E
:102CF400F90CF80CF70C890B792E770895316F25B0
:102D040096317308F7007408F8007508F90076081E
:102D1400FA000830FA36F90CF80CF70C890B8C2EF3
:102D2400770895316F259631730895316F25963163
:102D34009B2E0800F501F601710870040319A32EF7
:102D4400A42ED92EF701F70AB12E0130F035F10D7A
:102D5400890BA82E0130F4007408F707B12EF11F77
:102D6400B42EB52EA72EB72EB72E0130F535F60D9D
:102D7400890BB82E71087302031DC22E70087202EB
:102D8400031CC52EC62ECC2E7008F2027108F33B2C
:102D94007514CC2E0130F136F00C890BCD2E013098
:102DA400F702031DD62ED72EB72ED92ED92E76088C
:102DB400F101F1077508F001F007E02E0800F100B9
:102DC40004307102031CE72EE82EF22E0C30F000C2
:102DD40070082000DA00FF30240092002C2F2C2FE2
:102DE40003307102031CF72EF82E022F80302400CA
:102DF40092000330F00070082000DA002C2F2C2FF2
:102E040002307102031C072F082F122F3F302400B9
:102E140092000230F00070082000DA002C2F2C2FD2
:102E24007108013A031D172F182F202F0F3024008B
:102E340092002000DA01DA0A2C2F2C2FF108031D4E
:102E4400242F252F2C2F0330240092002000DA0198
:102E54002C2F2C2F0800F300F501F50A0230F100A5
:102E64007108F400FF30F1007108F6007308031DC7
:102E74003C2F412F0230F1007108F500412F013041
:102E840095315C259731F1007108F700C92F303076
:102E94007702031C4E2F4F2F562F3A307702031C14
:102EA400542F552F702F562F41307702031C5B2F60
:102EB4005C2F632F47307702031C612F622F702F22
:102EC400632F61307702031C682F692FC12F67308D
:102ED400770203186E2F6F2FC12F702F7608FF3AD9
:102EE400031D752F762F782FF601782F77089531EB
:102EF4002425973130307702031C812F822F962F9F
:102F04003A3077020318872F882F962F7608F1001E
:102F14000330F135FF3E031D8B2F71357707D03E0B
:102F2400F2007208F600BE2F41307702031C9B2F7B
:102F34009C2FB02F473077020318A12FA22FB02F58
:102F44007608F1000330F135FF3E031DA52F7135DE
:102F54007707C93EF2007208F600BE2F7608F1002A
:102F64000330F135FF3E031DB32F71357707A93EBA
:102F7400F2007208F600BE2F0130F402C12F0130B6
:102F840095315C259731F1007108F700C92F770856
:102F94000D3A0319CE2FCF2FDC2F77080A3A0319E5
:102FA400D42FD52FDC2FF408031DD92FDA2F492F66
:102FB400DC2FDC2F77080D3A0319E12FE22FE92FDC
:102FC40077080A3A031DE72FE82FF72FE92F01307E
:102FD400F502F72FF72F013095315C259731F10079
:102FE4007108F7000130F502F72FF508031DFB2FD8
:0C2FF400FC2FED2FFD2F7608FF2F0800AA
:020000040001F9
:04000E00E1FFFFDF30
:00000001FF
